{
  "_format": "hh-sol-artifact-1",
  "contractName": "Bank",
  "sourceName": "contracts/Bank.sol",
  "abi": [
    {
      "inputs": [],
      "stateMutability": "nonpayable",
      "type": "constructor"
    },
    {
      "inputs": [],
      "name": "bankbalance",
      "outputs": [
        {
          "internalType": "uint256",
          "name": "",
          "type": "uint256"
        }
      ],
      "stateMutability": "view",
      "type": "function"
    },
    {
      "inputs": [],
      "name": "deposit",
      "outputs": [],
      "stateMutability": "payable",
      "type": "function"
    },
    {
      "inputs": [],
      "name": "viewbalance",
      "outputs": [
        {
          "internalType": "uint256",
          "name": "",
          "type": "uint256"
        }
      ],
      "stateMutability": "view",
      "type": "function"
    },
    {
      "inputs": [
        {
          "internalType": "uint256",
          "name": "_amount",
          "type": "uint256"
        }
      ],
      "name": "withdraw",
      "outputs": [],
      "stateMutability": "payable",
      "type": "function"
    }
  ],
  "bytecode": "0x60806040523480156200001157600080fd5b50620000416040518060600160405280602e815260200162001142602e91396200008860201b6200065f1760201c565b33600160006101000a81548173ffffffffffffffffffffffffffffffffffffffff021916908373ffffffffffffffffffffffffffffffffffffffff1602179055506200021c565b62000128816040516024016200009f919062000195565b6040516020818303038152906040527f41304fac000000000000000000000000000000000000000000000000000000007bffffffffffffffffffffffffffffffffffffffffffffffffffffffff19166020820180517bffffffffffffffffffffffffffffffffffffffffffffffffffffffff83818316178352505050506200012b60201b60201c565b50565b60008151905060006a636f6e736f6c652e6c6f679050602083016000808483855afa5050505050565b60006200016182620001b9565b6200016d8185620001c4565b93506200017f818560208601620001d5565b6200018a816200020b565b840191505092915050565b60006020820190508181036000830152620001b1818462000154565b905092915050565b600081519050919050565b600082825260208201905092915050565b60005b83811015620001f5578082015181840152602081019050620001d8565b8381111562000205576000848401525b50505050565b6000601f19601f8301169050919050565b610f16806200022c6000396000f3fe60806040526004361061003f5760003560e01c80632e1a7d4d146100445780635f2d737414610060578063af61ed3d1461008b578063d0e30db0146100b6575b600080fd5b61005e600480360381019061005991906109b8565b6100c0565b005b34801561006c57600080fd5b50610075610344565b6040516100829190610c84565b60405180910390f35b34801561009757600080fd5b506100a0610451565b6040516100ad9190610c84565b60405180910390f35b6100be61054d565b005b600260003373ffffffffffffffffffffffffffffffffffffffff1673ffffffffffffffffffffffffffffffffffffffff16815260200190815260200160002054811161024e5760003373ffffffffffffffffffffffffffffffffffffffff168260405161012c90610ac4565b60006040518083038185875af1925050503d8060008114610169576040519150601f19603f3d011682016040523d82523d6000602084013e61016e565b606091505b5050905081600260003373ffffffffffffffffffffffffffffffffffffffff1673ffffffffffffffffffffffffffffffffffffffff16815260200190815260200160002060008282546101c19190610d1c565b9250508190555080610208576040517f08c379a00000000000000000000000000000000000000000000000000000000081526004016101ff90610c44565b60405180910390fd5b610248336040518060400160405280600a81526020017f2077697468647265772000000000000000000000000000000000000000000000815250846106f8565b50610341565b61028c6040518060400160405280601581526020017f496e73756666696369656e742042616c616e636520000000000000000000000081525061065f565b6103406040518060400160405280601181526020017f43757272656e742042616c616e63653a20000000000000000000000000000000815250600260003373ffffffffffffffffffffffffffffffffffffffff1673ffffffffffffffffffffffffffffffffffffffff168152602001908152602001600020546040518060400160405280600181526020017f0a00000000000000000000000000000000000000000000000000000000000000815250610797565b5b50565b6000600160009054906101000a900473ffffffffffffffffffffffffffffffffffffffff1673ffffffffffffffffffffffffffffffffffffffff163373ffffffffffffffffffffffffffffffffffffffff16146103d6576040517f08c379a00000000000000000000000000000000000000000000000000000000081526004016103cd90610c64565b60405180910390fd5b61044b6040518060400160405280600e81526020017f42616e6b2042616c616e63653a20000000000000000000000000000000000000815250476040518060400160405280600181526020017f0a00000000000000000000000000000000000000000000000000000000000000815250610797565b47905090565b6000610508336040518060400160405280600d81526020017f27732042616c616e6365203d2000000000000000000000000000000000000000815250600260003373ffffffffffffffffffffffffffffffffffffffff1673ffffffffffffffffffffffffffffffffffffffff168152602001908152602001600020546040518060400160405280600181526020017f0a00000000000000000000000000000000000000000000000000000000000000815250610836565b600260003373ffffffffffffffffffffffffffffffffffffffff1673ffffffffffffffffffffffffffffffffffffffff16815260200190815260200160002054905090565b6000341415610591576040517f08c379a000000000000000000000000000000000000000000000000000000000815260040161058890610c24565b60405180910390fd5b34600260003373ffffffffffffffffffffffffffffffffffffffff1673ffffffffffffffffffffffffffffffffffffffff16815260200190815260200160002060008282546105e09190610cc6565b9250508190555061065d6040518060400160405280600281526020017f2573000000000000000000000000000000000000000000000000000000000000815250336040518060400160405280600b81526020017f206465706f736974656420000000000000000000000000000000000000000000815250346108d8565b565b6106f5816040516024016106739190610b6a565b6040516020818303038152906040527f41304fac000000000000000000000000000000000000000000000000000000007bffffffffffffffffffffffffffffffffffffffffffffffffffffffff19166020820180517bffffffffffffffffffffffffffffffffffffffffffffffffffffffff838183161783525050505061097a565b50565b61079283838360405160240161071093929190610ad9565b6040516020818303038152906040527f1cdaf28a000000000000000000000000000000000000000000000000000000007bffffffffffffffffffffffffffffffffffffffffffffffffffffffff19166020820180517bffffffffffffffffffffffffffffffffffffffffffffffffffffffff838183161783525050505061097a565b505050565b6108318383836040516024016107af93929190610bdf565b6040516020818303038152906040527fa3f5c739000000000000000000000000000000000000000000000000000000007bffffffffffffffffffffffffffffffffffffffffffffffffffffffff19166020820180517bffffffffffffffffffffffffffffffffffffffffffffffffffffffff838183161783525050505061097a565b505050565b6108d2848484846040516024016108509493929190610b17565b6040516020818303038152906040527f5d1365c9000000000000000000000000000000000000000000000000000000007bffffffffffffffffffffffffffffffffffffffffffffffffffffffff19166020820180517bffffffffffffffffffffffffffffffffffffffffffffffffffffffff838183161783525050505061097a565b50505050565b610974848484846040516024016108f29493929190610b8c565b6040516020818303038152906040527f8f624be9000000000000000000000000000000000000000000000000000000007bffffffffffffffffffffffffffffffffffffffffffffffffffffffff19166020820180517bffffffffffffffffffffffffffffffffffffffffffffffffffffffff838183161783525050505061097a565b50505050565b60008151905060006a636f6e736f6c652e6c6f679050602083016000808483855afa5050505050565b6000813590506109b281610ec9565b92915050565b6000602082840312156109ca57600080fd5b60006109d8848285016109a3565b91505092915050565b6109ea81610d50565b82525050565b60006109fb82610c9f565b610a058185610cb5565b9350610a15818560208601610d8c565b610a1e81610dee565b840191505092915050565b6000610a36602983610cb5565b9150610a4182610dff565b604082019050919050565b6000610a59601883610cb5565b9150610a6482610e4e565b602082019050919050565b6000610a7c600083610caa565b9150610a8782610e77565b600082019050919050565b6000610a9f603683610cb5565b9150610aaa82610e7a565b604082019050919050565b610abe81610d82565b82525050565b6000610acf82610a6f565b9150819050919050565b6000606082019050610aee60008301866109e1565b8181036020830152610b0081856109f0565b9050610b0f6040830184610ab5565b949350505050565b6000608082019050610b2c60008301876109e1565b8181036020830152610b3e81866109f0565b9050610b4d6040830185610ab5565b8181036060830152610b5f81846109f0565b905095945050505050565b60006020820190508181036000830152610b8481846109f0565b905092915050565b60006080820190508181036000830152610ba681876109f0565b9050610bb560208301866109e1565b8181036040830152610bc781856109f0565b9050610bd66060830184610ab5565b95945050505050565b60006060820190508181036000830152610bf981866109f0565b9050610c086020830185610ab5565b8181036040830152610c1a81846109f0565b9050949350505050565b60006020820190508181036000830152610c3d81610a29565b9050919050565b60006020820190508181036000830152610c5d81610a4c565b9050919050565b60006020820190508181036000830152610c7d81610a92565b9050919050565b6000602082019050610c996000830184610ab5565b92915050565b600081519050919050565b600081905092915050565b600082825260208201905092915050565b6000610cd182610d82565b9150610cdc83610d82565b9250827fffffffffffffffffffffffffffffffffffffffffffffffffffffffffffffffff03821115610d1157610d10610dbf565b5b828201905092915050565b6000610d2782610d82565b9150610d3283610d82565b925082821015610d4557610d44610dbf565b5b828203905092915050565b6000610d5b82610d62565b9050919050565b600073ffffffffffffffffffffffffffffffffffffffff82169050919050565b6000819050919050565b60005b83811015610daa578082015181840152602081019050610d8f565b83811115610db9576000848401525b50505050565b7f4e487b7100000000000000000000000000000000000000000000000000000000600052601160045260246000fd5b6000601f19601f8301169050919050565b7f596f75206e65656420746f206465706f73697420736f6d6520616d6f756e742060008201527f6f66206d6f6e6579210000000000000000000000000000000000000000000000602082015250565b7f4661696c656420746f207769746864726177206d6f6e65790000000000000000600082015250565b50565b7f596f75206d75737420626520746865206f776e6572206f66207468652062616e60008201527f6b20746f2073656520616c6c2062616c616e6365732e00000000000000000000602082015250565b610ed281610d82565b8114610edd57600080fd5b5056fea264697066735822122004ac8c7755c0d7d3fb9213bb2d2c5d2b25523ff6bc83ed18008340fd865371a264736f6c634300080400330a2020202020202020202020202020202020202020202020202a2a2a2a49747a2064612042616e6b2a2a2a2a200a",
  "linkReferences": {},
  "deployedLinkReferences": {}
}