{
  "_format": "hh-sol-artifact-1",
  "contractName": "Bank",
  "sourceName": "contracts/Bank.sol",
  "abi": [
    {
      "inputs": [],
      "stateMutability": "nonpayable",
      "type": "constructor"
    },
    {
      "inputs": [],
      "name": "balance",
      "outputs": [
        {
          "internalType": "uint256",
          "name": "",
          "type": "uint256"
        }
      ],
      "stateMutability": "view",
      "type": "function"
    },
    {
      "inputs": [],
      "name": "bankbalance",
      "outputs": [
        {
          "internalType": "uint256",
          "name": "",
          "type": "uint256"
        }
      ],
      "stateMutability": "view",
      "type": "function"
    },
    {
      "inputs": [],
      "name": "bankname",
      "outputs": [
        {
          "internalType": "string",
          "name": "",
          "type": "string"
        }
      ],
      "stateMutability": "view",
      "type": "function"
    },
    {
      "inputs": [],
      "name": "deposit",
      "outputs": [],
      "stateMutability": "payable",
      "type": "function"
    },
    {
      "inputs": [],
      "name": "owner",
      "outputs": [
        {
          "internalType": "address",
          "name": "",
          "type": "address"
        }
      ],
      "stateMutability": "view",
      "type": "function"
    },
    {
      "inputs": [
        {
          "internalType": "string",
          "name": "_name",
          "type": "string"
        }
      ],
      "name": "setBankName",
      "outputs": [],
      "stateMutability": "nonpayable",
      "type": "function"
    },
    {
      "inputs": [],
      "name": "viewbalance",
      "outputs": [
        {
          "internalType": "uint256",
          "name": "",
          "type": "uint256"
        }
      ],
      "stateMutability": "view",
      "type": "function"
    },
    {
      "inputs": [
        {
          "internalType": "uint256",
          "name": "_amount",
          "type": "uint256"
        }
      ],
      "name": "withdraw",
      "outputs": [],
      "stateMutability": "payable",
      "type": "function"
    }
  ],
  "bytecode": "0x60806040523480156200001157600080fd5b50620000416040518060600160405280602e8152602001620016ab602e91396200008860201b620008a91760201c565b33600160006101000a81548173ffffffffffffffffffffffffffffffffffffffff021916908373ffffffffffffffffffffffffffffffffffffffff1602179055506200021c565b62000128816040516024016200009f919062000195565b6040516020818303038152906040527f41304fac000000000000000000000000000000000000000000000000000000007bffffffffffffffffffffffffffffffffffffffffffffffffffffffff19166020820180517bffffffffffffffffffffffffffffffffffffffffffffffffffffffff83818316178352505050506200012b60201b60201c565b50565b60008151905060006a636f6e736f6c652e6c6f679050602083016000808483855afa5050505050565b60006200016182620001b9565b6200016d8185620001c4565b93506200017f818560208601620001d5565b6200018a816200020b565b840191505092915050565b60006020820190508181036000830152620001b1818462000154565b905092915050565b600081519050919050565b600082825260208201905092915050565b60005b83811015620001f5578082015181840152602081019050620001d8565b8381111562000205576000848401525b50505050565b6000601f19601f8301169050919050565b61147f806200022c6000396000f3fe60806040526004361061007b5760003560e01c8063af61ed3d1161004e578063af61ed3d1461011b578063b69ef8a814610146578063d0e30db014610171578063d9bf5fc81461017b5761007b565b80632e1a7d4d146100805780635f2d73741461009c57806370142690146100c75780638da5cb5b146100f0575b600080fd5b61009a60048036038101906100959190610d4e565b6101a6565b005b3480156100a857600080fd5b506100b161042a565b6040516100be9190611078565b60405180910390f35b3480156100d357600080fd5b506100ee60048036038101906100e99190610d0d565b610537565b005b3480156100fc57600080fd5b506101056105e1565b6040516101129190610e92565b60405180910390f35b34801561012757600080fd5b50610130610607565b60405161013d9190611078565b60405180910390f35b34801561015257600080fd5b5061015b610703565b6040516101689190611078565b60405180910390f35b610179610709565b005b34801561018757600080fd5b5061019061081b565b60405161019d9190610f3e565b60405180910390f35b600360003373ffffffffffffffffffffffffffffffffffffffff1673ffffffffffffffffffffffffffffffffffffffff1681526020019081526020016000205481116103345760003373ffffffffffffffffffffffffffffffffffffffff168260405161021290610e7d565b60006040518083038185875af1925050503d806000811461024f576040519150601f19603f3d011682016040523d82523d6000602084013e610254565b606091505b5050905081600360003373ffffffffffffffffffffffffffffffffffffffff1673ffffffffffffffffffffffffffffffffffffffff16815260200190815260200160002060008282546102a79190611166565b92505081905550806102ee576040517f08c379a00000000000000000000000000000000000000000000000000000000081526004016102e590611018565b60405180910390fd5b61032e336040518060400160405280600a81526020017f207769746864726577200000000000000000000000000000000000000000000081525084610942565b50610427565b6103726040518060400160405280601581526020017f496e73756666696369656e742042616c616e63652000000000000000000000008152506108a9565b6104266040518060400160405280601181526020017f43757272656e742042616c616e63653a20000000000000000000000000000000815250600360003373ffffffffffffffffffffffffffffffffffffffff1673ffffffffffffffffffffffffffffffffffffffff168152602001908152602001600020546040518060400160405280600181526020017f0a000000000000000000000000000000000000000000000000000000000000008152506109e1565b5b50565b6000600160009054906101000a900473ffffffffffffffffffffffffffffffffffffffff1673ffffffffffffffffffffffffffffffffffffffff163373ffffffffffffffffffffffffffffffffffffffff16146104bc576040517f08c379a00000000000000000000000000000000000000000000000000000000081526004016104b390611058565b60405180910390fd5b6105316040518060400160405280600e81526020017f42616e6b2042616c616e63653a20000000000000000000000000000000000000815250476040518060400160405280600181526020017f0a000000000000000000000000000000000000000000000000000000000000008152506109e1565b47905090565b600160009054906101000a900473ffffffffffffffffffffffffffffffffffffffff1673ffffffffffffffffffffffffffffffffffffffff163373ffffffffffffffffffffffffffffffffffffffff16146105c7576040517f08c379a00000000000000000000000000000000000000000000000000000000081526004016105be90611038565b60405180910390fd5b80600290805190602001906105dd929190610bed565b5050565b600160009054906101000a900473ffffffffffffffffffffffffffffffffffffffff1681565b60006106be336040518060400160405280600d81526020017f27732042616c616e6365203d2000000000000000000000000000000000000000815250600360003373ffffffffffffffffffffffffffffffffffffffff1673ffffffffffffffffffffffffffffffffffffffff168152602001908152602001600020546040518060400160405280600181526020017f0a00000000000000000000000000000000000000000000000000000000000000815250610a80565b600360003373ffffffffffffffffffffffffffffffffffffffff1673ffffffffffffffffffffffffffffffffffffffff16815260200190815260200160002054905090565b60005481565b600034141561074d576040517f08c379a000000000000000000000000000000000000000000000000000000000815260040161074490610ff8565b60405180910390fd5b34600360003373ffffffffffffffffffffffffffffffffffffffff1673ffffffffffffffffffffffffffffffffffffffff168152602001908152602001600020600082825461079c9190611110565b925050819055506108196040518060400160405280600281526020017f2573000000000000000000000000000000000000000000000000000000000000815250336040518060400160405280600b81526020017f206465706f73697465642000000000000000000000000000000000000000000081525034610b22565b565b6002805461082890611218565b80601f016020809104026020016040519081016040528092919081815260200182805461085490611218565b80156108a15780601f10610876576101008083540402835291602001916108a1565b820191906000526020600020905b81548152906001019060200180831161088457829003601f168201915b505050505081565b61093f816040516024016108bd9190610f3e565b6040516020818303038152906040527f41304fac000000000000000000000000000000000000000000000000000000007bffffffffffffffffffffffffffffffffffffffffffffffffffffffff19166020820180517bffffffffffffffffffffffffffffffffffffffffffffffffffffffff8381831617835250505050610bc4565b50565b6109dc83838360405160240161095a93929190610ead565b6040516020818303038152906040527f1cdaf28a000000000000000000000000000000000000000000000000000000007bffffffffffffffffffffffffffffffffffffffffffffffffffffffff19166020820180517bffffffffffffffffffffffffffffffffffffffffffffffffffffffff8381831617835250505050610bc4565b505050565b610a7b8383836040516024016109f993929190610fb3565b6040516020818303038152906040527fa3f5c739000000000000000000000000000000000000000000000000000000007bffffffffffffffffffffffffffffffffffffffffffffffffffffffff19166020820180517bffffffffffffffffffffffffffffffffffffffffffffffffffffffff8381831617835250505050610bc4565b505050565b610b1c84848484604051602401610a9a9493929190610eeb565b6040516020818303038152906040527f5d1365c9000000000000000000000000000000000000000000000000000000007bffffffffffffffffffffffffffffffffffffffffffffffffffffffff19166020820180517bffffffffffffffffffffffffffffffffffffffffffffffffffffffff8381831617835250505050610bc4565b50505050565b610bbe84848484604051602401610b3c9493929190610f60565b6040516020818303038152906040527f8f624be9000000000000000000000000000000000000000000000000000000007bffffffffffffffffffffffffffffffffffffffffffffffffffffffff19166020820180517bffffffffffffffffffffffffffffffffffffffffffffffffffffffff8381831617835250505050610bc4565b50505050565b60008151905060006a636f6e736f6c652e6c6f679050602083016000808483855afa5050505050565b828054610bf990611218565b90600052602060002090601f016020900481019282610c1b5760008555610c62565b82601f10610c3457805160ff1916838001178555610c62565b82800160010185558215610c62579182015b82811115610c61578251825591602001919060010190610c46565b5b509050610c6f9190610c73565b5090565b5b80821115610c8c576000816000905550600101610c74565b5090565b6000610ca3610c9e846110b8565b611093565b905082815260208101848484011115610cbb57600080fd5b610cc68482856111d6565b509392505050565b600082601f830112610cdf57600080fd5b8135610cef848260208601610c90565b91505092915050565b600081359050610d0781611432565b92915050565b600060208284031215610d1f57600080fd5b600082013567ffffffffffffffff811115610d3957600080fd5b610d4584828501610cce565b91505092915050565b600060208284031215610d6057600080fd5b6000610d6e84828501610cf8565b91505092915050565b610d808161119a565b82525050565b6000610d91826110e9565b610d9b81856110ff565b9350610dab8185602086016111e5565b610db481611308565b840191505092915050565b6000610dcc6029836110ff565b9150610dd782611319565b604082019050919050565b6000610def6018836110ff565b9150610dfa82611368565b602082019050919050565b6000610e126000836110f4565b9150610e1d82611391565b600082019050919050565b6000610e356031836110ff565b9150610e4082611394565b604082019050919050565b6000610e586036836110ff565b9150610e63826113e3565b604082019050919050565b610e77816111cc565b82525050565b6000610e8882610e05565b9150819050919050565b6000602082019050610ea76000830184610d77565b92915050565b6000606082019050610ec26000830186610d77565b8181036020830152610ed48185610d86565b9050610ee36040830184610e6e565b949350505050565b6000608082019050610f006000830187610d77565b8181036020830152610f128186610d86565b9050610f216040830185610e6e565b8181036060830152610f338184610d86565b905095945050505050565b60006020820190508181036000830152610f588184610d86565b905092915050565b60006080820190508181036000830152610f7a8187610d86565b9050610f896020830186610d77565b8181036040830152610f9b8185610d86565b9050610faa6060830184610e6e565b95945050505050565b60006060820190508181036000830152610fcd8186610d86565b9050610fdc6020830185610e6e565b8181036040830152610fee8184610d86565b9050949350505050565b6000602082019050818103600083015261101181610dbf565b9050919050565b6000602082019050818103600083015261103181610de2565b9050919050565b6000602082019050818103600083015261105181610e28565b9050919050565b6000602082019050818103600083015261107181610e4b565b9050919050565b600060208201905061108d6000830184610e6e565b92915050565b600061109d6110ae565b90506110a9828261124a565b919050565b6000604051905090565b600067ffffffffffffffff8211156110d3576110d26112d9565b5b6110dc82611308565b9050602081019050919050565b600081519050919050565b600081905092915050565b600082825260208201905092915050565b600061111b826111cc565b9150611126836111cc565b9250827fffffffffffffffffffffffffffffffffffffffffffffffffffffffffffffffff0382111561115b5761115a61127b565b5b828201905092915050565b6000611171826111cc565b915061117c836111cc565b92508282101561118f5761118e61127b565b5b828203905092915050565b60006111a5826111ac565b9050919050565b600073ffffffffffffffffffffffffffffffffffffffff82169050919050565b6000819050919050565b82818337600083830152505050565b60005b838110156112035780820151818401526020810190506111e8565b83811115611212576000848401525b50505050565b6000600282049050600182168061123057607f821691505b60208210811415611244576112436112aa565b5b50919050565b61125382611308565b810181811067ffffffffffffffff82111715611272576112716112d9565b5b80604052505050565b7f4e487b7100000000000000000000000000000000000000000000000000000000600052601160045260246000fd5b7f4e487b7100000000000000000000000000000000000000000000000000000000600052602260045260246000fd5b7f4e487b7100000000000000000000000000000000000000000000000000000000600052604160045260246000fd5b6000601f19601f8301169050919050565b7f596f75206e65656420746f206465706f73697420736f6d6520616d6f756e742060008201527f6f66206d6f6e6579210000000000000000000000000000000000000000000000602082015250565b7f4661696c656420746f207769746864726177206d6f6e65790000000000000000600082015250565b50565b7f596f75206d75737420626520746865206f776e657220746f207365742074686560008201527f206e616d65206f66207468652062616e6b000000000000000000000000000000602082015250565b7f596f75206d75737420626520746865206f776e6572206f66207468652062616e60008201527f6b20746f2073656520616c6c2062616c616e6365732e00000000000000000000602082015250565b61143b816111cc565b811461144657600080fd5b5056fea2646970667358221220567b3fa3ae536a02f50aff44e2478332ff6b895f6f6abdcd4bcd232c537b0e6e64736f6c634300080400330a2020202020202020202020202020202020202020202020202a2a2a2a49747a2064612042616e6b2a2a2a2a200a",
  "linkReferences": {},
  "deployedLinkReferences": {}
}